{
  "_format": "hh-sol-artifact-1",
  "contractName": "CeloMiniMarket",
  "sourceName": "contracts/CeloMiniMarket.sol",
  "abi": [
    {
      "anonymous": false,
      "inputs": [
        {
          "indexed": true,
          "internalType": "uint256",
          "name": "id",
          "type": "uint256"
        },
        {
          "indexed": true,
          "internalType": "address",
          "name": "vendor",
          "type": "address"
        },
        {
          "indexed": false,
          "internalType": "string",
          "name": "name",
          "type": "string"
        },
        {
          "indexed": false,
          "internalType": "uint256",
          "name": "priceWei",
          "type": "uint256"
        }
      ],
      "name": "ProductAdded",
      "type": "event"
    },
    {
      "anonymous": false,
      "inputs": [
        {
          "indexed": true,
          "internalType": "uint256",
          "name": "id",
          "type": "uint256"
        },
        {
          "indexed": false,
          "internalType": "bool",
          "name": "active",
          "type": "bool"
        }
      ],
      "name": "ProductStatusToggled",
      "type": "event"
    },
    {
      "inputs": [
        {
          "internalType": "string",
          "name": "name",
          "type": "string"
        },
        {
          "internalType": "uint256",
          "name": "priceWei",
          "type": "uint256"
        },
        {
          "internalType": "string",
          "name": "description",
          "type": "string"
        }
      ],
      "name": "addProduct",
      "outputs": [
        {
          "internalType": "uint256",
          "name": "",
          "type": "uint256"
        }
      ],
      "stateMutability": "nonpayable",
      "type": "function"
    },
    {
      "inputs": [],
      "name": "getActiveProducts",
      "outputs": [
        {
          "components": [
            {
              "internalType": "uint256",
              "name": "id",
              "type": "uint256"
            },
            {
              "internalType": "address",
              "name": "vendor",
              "type": "address"
            },
            {
              "internalType": "string",
              "name": "name",
              "type": "string"
            },
            {
              "internalType": "uint256",
              "name": "priceWei",
              "type": "uint256"
            },
            {
              "internalType": "string",
              "name": "description",
              "type": "string"
            },
            {
              "internalType": "bool",
              "name": "active",
              "type": "bool"
            }
          ],
          "internalType": "struct CeloMiniMarket.Product[]",
          "name": "",
          "type": "tuple[]"
        }
      ],
      "stateMutability": "view",
      "type": "function"
    },
    {
      "inputs": [
        {
          "internalType": "uint256",
          "name": "id",
          "type": "uint256"
        }
      ],
      "name": "getProduct",
      "outputs": [
        {
          "internalType": "uint256",
          "name": "",
          "type": "uint256"
        },
        {
          "internalType": "address",
          "name": "",
          "type": "address"
        },
        {
          "internalType": "string",
          "name": "",
          "type": "string"
        },
        {
          "internalType": "uint256",
          "name": "",
          "type": "uint256"
        },
        {
          "internalType": "string",
          "name": "",
          "type": "string"
        },
        {
          "internalType": "bool",
          "name": "",
          "type": "bool"
        }
      ],
      "stateMutability": "view",
      "type": "function"
    },
    {
      "inputs": [],
      "name": "productsCount",
      "outputs": [
        {
          "internalType": "uint256",
          "name": "",
          "type": "uint256"
        }
      ],
      "stateMutability": "view",
      "type": "function"
    },
    {
      "inputs": [
        {
          "internalType": "uint256",
          "name": "id",
          "type": "uint256"
        },
        {
          "internalType": "bool",
          "name": "active",
          "type": "bool"
        }
      ],
      "name": "toggleProduct",
      "outputs": [],
      "stateMutability": "nonpayable",
      "type": "function"
    }
  ],
  "bytecode": "0x608060405234801561001057600080fd5b50611657806100206000396000f3fe608060405234801561001057600080fd5b50600436106100575760003560e01c80638f29695a1461005c578063aef2bf3d1461008c578063b9db15b4146100a8578063ca0f46c0146100dd578063e0df7bb6146100fb575b600080fd5b61007660048036038101906100719190610b97565b610119565b6040516100839190610c3b565b60405180910390f35b6100a660048036038101906100a19190610c8e565b6103ae565b005b6100c260048036038101906100bd9190610cce565b610505565b6040516100d496959493929190610ddb565b60405180910390f35b6100e5610763565b6040516100f29190611013565b60405180910390f35b610103610a98565b6040516101109190610c3b565b60405180910390f35b6000808686905011610160576040517f08c379a000000000000000000000000000000000000000000000000000000000815260040161015790611081565b60405180910390fd5b600084116101a3576040517f08c379a000000000000000000000000000000000000000000000000000000000815260040161019a906110ed565b60405180910390fd5b60008080549050905060006040518060c001604052808381526020013373ffffffffffffffffffffffffffffffffffffffff16815260200189898080601f016020809104026020016040519081016040528093929190818152602001838380828437600081840152601f19601f82011690508083019250505050505050815260200187815260200186868080601f016020809104026020016040519081016040528093929190818152602001838380828437600081840152601f19601f8201169050808301925050505050505081526020016001151581525090806001815401808255809150506001900390600052602060002090600602016000909190919091506000820151816000015560208201518160010160006101000a81548173ffffffffffffffffffffffffffffffffffffffff021916908373ffffffffffffffffffffffffffffffffffffffff160217905550604082015181600201908161030b9190611348565b5060608201518160030155608082015181600401908161032b9190611348565b5060a08201518160050160006101000a81548160ff02191690831515021790555050503373ffffffffffffffffffffffffffffffffffffffff16817fef311eec1d40202fee1909ab585df5e024df1930dc6bba97722d1e60e91c01f789898960405161039993929190611456565b60405180910390a38091505095945050505050565b60008054905082106103f5576040517f08c379a00000000000000000000000000000000000000000000000000000000081526004016103ec906114d4565b60405180910390fd5b600080838154811061040a576104096114f4565b5b906000526020600020906006020190503373ffffffffffffffffffffffffffffffffffffffff168160010160009054906101000a900473ffffffffffffffffffffffffffffffffffffffff1673ffffffffffffffffffffffffffffffffffffffff16146104ac576040517f08c379a00000000000000000000000000000000000000000000000000000000081526004016104a39061156f565b60405180910390fd5b818160050160006101000a81548160ff021916908315150217905550827f3073384d07d81581ba56de82cf13823a01c94c64e4fb49f91a1dbc47d0fc1ac3836040516104f8919061158f565b60405180910390a2505050565b600080606060006060600080805490508710610556576040517f08c379a000000000000000000000000000000000000000000000000000000000815260040161054d906114d4565b60405180910390fd5b600080888154811061056b5761056a6114f4565b5b90600052602060002090600602016040518060c0016040529081600082015481526020016001820160009054906101000a900473ffffffffffffffffffffffffffffffffffffffff1673ffffffffffffffffffffffffffffffffffffffff1673ffffffffffffffffffffffffffffffffffffffff1681526020016002820180546105f49061116b565b80601f01602080910402602001604051908101604052809291908181526020018280546106209061116b565b801561066d5780601f106106425761010080835404028352916020019161066d565b820191906000526020600020905b81548152906001019060200180831161065057829003601f168201915b50505050508152602001600382015481526020016004820180546106909061116b565b80601f01602080910402602001604051908101604052809291908181526020018280546106bc9061116b565b80156107095780601f106106de57610100808354040283529160200191610709565b820191906000526020600020905b8154815290600101906020018083116106ec57829003601f168201915b505050505081526020016005820160009054906101000a900460ff1615151515815250509050806000015181602001518260400151836060015184608001518560a001519650965096509650965096505091939550919395565b6060600080805490509050600080600090505b828110156107d85760008181548110610792576107916114f4565b5b906000526020600020906006020160050160009054906101000a900460ff16156107c55781806107c1906115d9565b9250505b80806107d0906115d9565b915050610776565b5060008167ffffffffffffffff8111156107f5576107f461110d565b5b60405190808252806020026020018201604052801561082e57816020015b61081b610aa4565b8152602001906001900390816108135790505b509050600080600090505b84811015610a8d5760008181548110610855576108546114f4565b5b906000526020600020906006020160050160009054906101000a900460ff1615610a7a576000818154811061088d5761088c6114f4565b5b90600052602060002090600602016040518060c0016040529081600082015481526020016001820160009054906101000a900473ffffffffffffffffffffffffffffffffffffffff1673ffffffffffffffffffffffffffffffffffffffff1673ffffffffffffffffffffffffffffffffffffffff1681526020016002820180546109169061116b565b80601f01602080910402602001604051908101604052809291908181526020018280546109429061116b565b801561098f5780601f106109645761010080835404028352916020019161098f565b820191906000526020600020905b81548152906001019060200180831161097257829003601f168201915b50505050508152602001600382015481526020016004820180546109b29061116b565b80601f01602080910402602001604051908101604052809291908181526020018280546109de9061116b565b8015610a2b5780601f10610a0057610100808354040283529160200191610a2b565b820191906000526020600020905b815481529060010190602001808311610a0e57829003601f168201915b505050505081526020016005820160009054906101000a900460ff161515151581525050838380610a5b906115d9565b945081518110610a6e57610a6d6114f4565b5b60200260200101819052505b8080610a85906115d9565b915050610839565b508194505050505090565b60008080549050905090565b6040518060c0016040528060008152602001600073ffffffffffffffffffffffffffffffffffffffff1681526020016060815260200160008152602001606081526020016000151581525090565b600080fd5b600080fd5b600080fd5b600080fd5b600080fd5b60008083601f840112610b2157610b20610afc565b5b8235905067ffffffffffffffff811115610b3e57610b3d610b01565b5b602083019150836001820283011115610b5a57610b59610b06565b5b9250929050565b6000819050919050565b610b7481610b61565b8114610b7f57600080fd5b50565b600081359050610b9181610b6b565b92915050565b600080600080600060608688031215610bb357610bb2610af2565b5b600086013567ffffffffffffffff811115610bd157610bd0610af7565b5b610bdd88828901610b0b565b95509550506020610bf088828901610b82565b935050604086013567ffffffffffffffff811115610c1157610c10610af7565b5b610c1d88828901610b0b565b92509250509295509295909350565b610c3581610b61565b82525050565b6000602082019050610c506000830184610c2c565b92915050565b60008115159050919050565b610c6b81610c56565b8114610c7657600080fd5b50565b600081359050610c8881610c62565b92915050565b60008060408385031215610ca557610ca4610af2565b5b6000610cb385828601610b82565b9250506020610cc485828601610c79565b9150509250929050565b600060208284031215610ce457610ce3610af2565b5b6000610cf284828501610b82565b91505092915050565b600073ffffffffffffffffffffffffffffffffffffffff82169050919050565b6000610d2682610cfb565b9050919050565b610d3681610d1b565b82525050565b600081519050919050565b600082825260208201905092915050565b60005b83811015610d76578082015181840152602081019050610d5b565b60008484015250505050565b6000601f19601f8301169050919050565b6000610d9e82610d3c565b610da88185610d47565b9350610db8818560208601610d58565b610dc181610d82565b840191505092915050565b610dd581610c56565b82525050565b600060c082019050610df06000830189610c2c565b610dfd6020830188610d2d565b8181036040830152610e0f8187610d93565b9050610e1e6060830186610c2c565b8181036080830152610e308185610d93565b9050610e3f60a0830184610dcc565b979650505050505050565b600081519050919050565b600082825260208201905092915050565b6000819050602082019050919050565b610e7f81610b61565b82525050565b610e8e81610d1b565b82525050565b600082825260208201905092915050565b6000610eb082610d3c565b610eba8185610e94565b9350610eca818560208601610d58565b610ed381610d82565b840191505092915050565b610ee781610c56565b82525050565b600060c083016000830151610f056000860182610e76565b506020830151610f186020860182610e85565b5060408301518482036040860152610f308282610ea5565b9150506060830151610f456060860182610e76565b5060808301518482036080860152610f5d8282610ea5565b91505060a0830151610f7260a0860182610ede565b508091505092915050565b6000610f898383610eed565b905092915050565b6000602082019050919050565b6000610fa982610e4a565b610fb38185610e55565b935083602082028501610fc585610e66565b8060005b858110156110015784840389528151610fe28582610f7d565b9450610fed83610f91565b925060208a01995050600181019050610fc9565b50829750879550505050505092915050565b6000602082019050818103600083015261102d8184610f9e565b905092915050565b7f4e616d6520726571756972656400000000000000000000000000000000000000600082015250565b600061106b600d83610d47565b915061107682611035565b602082019050919050565b6000602082019050818103600083015261109a8161105e565b9050919050565b7f5072696365206d757374206265203e2030000000000000000000000000000000600082015250565b60006110d7601183610d47565b91506110e2826110a1565b602082019050919050565b60006020820190508181036000830152611106816110ca565b9050919050565b7f4e487b7100000000000000000000000000000000000000000000000000000000600052604160045260246000fd5b7f4e487b7100000000000000000000000000000000000000000000000000000000600052602260045260246000fd5b6000600282049050600182168061118357607f821691505b6020821081036111965761119561113c565b5b50919050565b60008190508160005260206000209050919050565b60006020601f8301049050919050565b600082821b905092915050565b6000600883026111fe7fffffffffffffffffffffffffffffffffffffffffffffffffffffffffffffffff826111c1565b61120886836111c1565b95508019841693508086168417925050509392505050565b6000819050919050565b600061124561124061123b84610b61565b611220565b610b61565b9050919050565b6000819050919050565b61125f8361122a565b61127361126b8261124c565b8484546111ce565b825550505050565b600090565b61128861127b565b611293818484611256565b505050565b5b818110156112b7576112ac600082611280565b600181019050611299565b5050565b601f8211156112fc576112cd8161119c565b6112d6846111b1565b810160208510156112e5578190505b6112f96112f1856111b1565b830182611298565b50505b505050565b600082821c905092915050565b600061131f60001984600802611301565b1980831691505092915050565b6000611338838361130e565b9150826002028217905092915050565b61135182610d3c565b67ffffffffffffffff81111561136a5761136961110d565b5b611374825461116b565b61137f8282856112bb565b600060209050601f8311600181146113b257600084156113a0578287015190505b6113aa858261132c565b865550611412565b601f1984166113c08661119c565b60005b828110156113e8578489015182556001820191506020850194506020810190506113c3565b868310156114055784890151611401601f89168261130e565b8355505b6001600288020188555050505b505050505050565b82818337600083830152505050565b60006114358385610d47565b935061144283858461141a565b61144b83610d82565b840190509392505050565b60006040820190508181036000830152611471818587611429565b90506114806020830184610c2c565b949350505050565b7f496e76616c696420696400000000000000000000000000000000000000000000600082015250565b60006114be600a83610d47565b91506114c982611488565b602082019050919050565b600060208201905081810360008301526114ed816114b1565b9050919050565b7f4e487b7100000000000000000000000000000000000000000000000000000000600052603260045260246000fd5b7f4f6e6c792076656e646f72000000000000000000000000000000000000000000600082015250565b6000611559600b83610d47565b915061156482611523565b602082019050919050565b600060208201905081810360008301526115888161154c565b9050919050565b60006020820190506115a46000830184610dcc565b92915050565b7f4e487b7100000000000000000000000000000000000000000000000000000000600052601160045260246000fd5b60006115e482610b61565b91507fffffffffffffffffffffffffffffffffffffffffffffffffffffffffffffffff8203611616576116156115aa565b5b60018201905091905056fea26469706673582212202defd50ffed0ec069c2424a038a77af8b1457f25bf47ec5cef7262b51e4048e564736f6c63430008140033",
  "linkReferences": {},
  "deployedLinkReferences": {}
}