{
  "_format": "hh-sol-artifact-1",
  "contractName": "CeloMiniMarket",
  "sourceName": "contracts/CeloMiniMarket.sol",
  "abi": [
    {
      "inputs": [],
      "stateMutability": "nonpayable",
      "type": "constructor"
    },
    {
      "inputs": [
        {
          "internalType": "address",
          "name": "sender",
          "type": "address"
        },
        {
          "internalType": "uint256",
          "name": "tokenId",
          "type": "uint256"
        },
        {
          "internalType": "address",
          "name": "owner",
          "type": "address"
        }
      ],
      "name": "ERC721IncorrectOwner",
      "type": "error"
    },
    {
      "inputs": [
        {
          "internalType": "address",
          "name": "operator",
          "type": "address"
        },
        {
          "internalType": "uint256",
          "name": "tokenId",
          "type": "uint256"
        }
      ],
      "name": "ERC721InsufficientApproval",
      "type": "error"
    },
    {
      "inputs": [
        {
          "internalType": "address",
          "name": "approver",
          "type": "address"
        }
      ],
      "name": "ERC721InvalidApprover",
      "type": "error"
    },
    {
      "inputs": [
        {
          "internalType": "address",
          "name": "operator",
          "type": "address"
        }
      ],
      "name": "ERC721InvalidOperator",
      "type": "error"
    },
    {
      "inputs": [
        {
          "internalType": "address",
          "name": "owner",
          "type": "address"
        }
      ],
      "name": "ERC721InvalidOwner",
      "type": "error"
    },
    {
      "inputs": [
        {
          "internalType": "address",
          "name": "receiver",
          "type": "address"
        }
      ],
      "name": "ERC721InvalidReceiver",
      "type": "error"
    },
    {
      "inputs": [
        {
          "internalType": "address",
          "name": "sender",
          "type": "address"
        }
      ],
      "name": "ERC721InvalidSender",
      "type": "error"
    },
    {
      "inputs": [
        {
          "internalType": "uint256",
          "name": "tokenId",
          "type": "uint256"
        }
      ],
      "name": "ERC721NonexistentToken",
      "type": "error"
    },
    {
      "anonymous": false,
      "inputs": [
        {
          "indexed": true,
          "internalType": "address",
          "name": "owner",
          "type": "address"
        },
        {
          "indexed": true,
          "internalType": "address",
          "name": "approved",
          "type": "address"
        },
        {
          "indexed": true,
          "internalType": "uint256",
          "name": "tokenId",
          "type": "uint256"
        }
      ],
      "name": "Approval",
      "type": "event"
    },
    {
      "anonymous": false,
      "inputs": [
        {
          "indexed": true,
          "internalType": "address",
          "name": "owner",
          "type": "address"
        },
        {
          "indexed": true,
          "internalType": "address",
          "name": "operator",
          "type": "address"
        },
        {
          "indexed": false,
          "internalType": "bool",
          "name": "approved",
          "type": "bool"
        }
      ],
      "name": "ApprovalForAll",
      "type": "event"
    },
    {
      "anonymous": false,
      "inputs": [
        {
          "indexed": false,
          "internalType": "uint256",
          "name": "_fromTokenId",
          "type": "uint256"
        },
        {
          "indexed": false,
          "internalType": "uint256",
          "name": "_toTokenId",
          "type": "uint256"
        }
      ],
      "name": "BatchMetadataUpdate",
      "type": "event"
    },
    {
      "anonymous": false,
      "inputs": [
        {
          "indexed": false,
          "internalType": "uint256",
          "name": "_tokenId",
          "type": "uint256"
        }
      ],
      "name": "MetadataUpdate",
      "type": "event"
    },
    {
      "anonymous": false,
      "inputs": [
        {
          "indexed": true,
          "internalType": "uint256",
          "name": "tokenId",
          "type": "uint256"
        },
        {
          "indexed": true,
          "internalType": "address",
          "name": "vendor",
          "type": "address"
        },
        {
          "indexed": false,
          "internalType": "string",
          "name": "name",
          "type": "string"
        },
        {
          "indexed": false,
          "internalType": "uint256",
          "name": "priceWei",
          "type": "uint256"
        }
      ],
      "name": "ProductAdded",
      "type": "event"
    },
    {
      "anonymous": false,
      "inputs": [
        {
          "indexed": true,
          "internalType": "uint256",
          "name": "tokenId",
          "type": "uint256"
        },
        {
          "indexed": true,
          "internalType": "address",
          "name": "buyer",
          "type": "address"
        },
        {
          "indexed": true,
          "internalType": "address",
          "name": "vendor",
          "type": "address"
        },
        {
          "indexed": false,
          "internalType": "uint256",
          "name": "price",
          "type": "uint256"
        }
      ],
      "name": "ProductPurchased",
      "type": "event"
    },
    {
      "anonymous": false,
      "inputs": [
        {
          "indexed": true,
          "internalType": "uint256",
          "name": "tokenId",
          "type": "uint256"
        },
        {
          "indexed": false,
          "internalType": "bool",
          "name": "active",
          "type": "bool"
        }
      ],
      "name": "ProductStatusToggled",
      "type": "event"
    },
    {
      "anonymous": false,
      "inputs": [
        {
          "indexed": true,
          "internalType": "address",
          "name": "from",
          "type": "address"
        },
        {
          "indexed": true,
          "internalType": "address",
          "name": "to",
          "type": "address"
        },
        {
          "indexed": true,
          "internalType": "uint256",
          "name": "tokenId",
          "type": "uint256"
        }
      ],
      "name": "Transfer",
      "type": "event"
    },
    {
      "inputs": [
        {
          "internalType": "string",
          "name": "name",
          "type": "string"
        },
        {
          "internalType": "uint256",
          "name": "priceWei",
          "type": "uint256"
        },
        {
          "internalType": "string",
          "name": "description",
          "type": "string"
        },
        {
          "internalType": "string",
          "name": "imageData",
          "type": "string"
        }
      ],
      "name": "addProduct",
      "outputs": [
        {
          "internalType": "uint256",
          "name": "",
          "type": "uint256"
        }
      ],
      "stateMutability": "nonpayable",
      "type": "function"
    },
    {
      "inputs": [
        {
          "internalType": "address",
          "name": "to",
          "type": "address"
        },
        {
          "internalType": "uint256",
          "name": "tokenId",
          "type": "uint256"
        }
      ],
      "name": "approve",
      "outputs": [],
      "stateMutability": "nonpayable",
      "type": "function"
    },
    {
      "inputs": [
        {
          "internalType": "address",
          "name": "owner",
          "type": "address"
        }
      ],
      "name": "balanceOf",
      "outputs": [
        {
          "internalType": "uint256",
          "name": "",
          "type": "uint256"
        }
      ],
      "stateMutability": "view",
      "type": "function"
    },
    {
      "inputs": [
        {
          "internalType": "uint256",
          "name": "tokenId",
          "type": "uint256"
        }
      ],
      "name": "burn",
      "outputs": [],
      "stateMutability": "nonpayable",
      "type": "function"
    },
    {
      "inputs": [],
      "name": "getActiveProducts",
      "outputs": [
        {
          "components": [
            {
              "internalType": "uint256",
              "name": "tokenId",
              "type": "uint256"
            },
            {
              "internalType": "address",
              "name": "vendor",
              "type": "address"
            },
            {
              "internalType": "string",
              "name": "name",
              "type": "string"
            },
            {
              "internalType": "uint256",
              "name": "priceWei",
              "type": "uint256"
            },
            {
              "internalType": "string",
              "name": "description",
              "type": "string"
            },
            {
              "internalType": "string",
              "name": "imageData",
              "type": "string"
            },
            {
              "internalType": "bool",
              "name": "active",
              "type": "bool"
            },
            {
              "internalType": "bool",
              "name": "sold",
              "type": "bool"
            }
          ],
          "internalType": "struct CeloMiniMarket.Product[]",
          "name": "",
          "type": "tuple[]"
        }
      ],
      "stateMutability": "view",
      "type": "function"
    },
    {
      "inputs": [
        {
          "internalType": "uint256",
          "name": "tokenId",
          "type": "uint256"
        }
      ],
      "name": "getApproved",
      "outputs": [
        {
          "internalType": "address",
          "name": "",
          "type": "address"
        }
      ],
      "stateMutability": "view",
      "type": "function"
    },
    {
      "inputs": [
        {
          "internalType": "uint256",
          "name": "tokenId",
          "type": "uint256"
        }
      ],
      "name": "getProduct",
      "outputs": [
        {
          "internalType": "uint256",
          "name": "",
          "type": "uint256"
        },
        {
          "internalType": "address",
          "name": "",
          "type": "address"
        },
        {
          "internalType": "string",
          "name": "",
          "type": "string"
        },
        {
          "internalType": "uint256",
          "name": "",
          "type": "uint256"
        },
        {
          "internalType": "string",
          "name": "",
          "type": "string"
        },
        {
          "internalType": "string",
          "name": "",
          "type": "string"
        },
        {
          "internalType": "bool",
          "name": "",
          "type": "bool"
        },
        {
          "internalType": "bool",
          "name": "",
          "type": "bool"
        }
      ],
      "stateMutability": "view",
      "type": "function"
    },
    {
      "inputs": [
        {
          "internalType": "address",
          "name": "owner",
          "type": "address"
        },
        {
          "internalType": "address",
          "name": "operator",
          "type": "address"
        }
      ],
      "name": "isApprovedForAll",
      "outputs": [
        {
          "internalType": "bool",
          "name": "",
          "type": "bool"
        }
      ],
      "stateMutability": "view",
      "type": "function"
    },
    {
      "inputs": [],
      "name": "name",
      "outputs": [
        {
          "internalType": "string",
          "name": "",
          "type": "string"
        }
      ],
      "stateMutability": "view",
      "type": "function"
    },
    {
      "inputs": [
        {
          "internalType": "uint256",
          "name": "tokenId",
          "type": "uint256"
        }
      ],
      "name": "ownerOf",
      "outputs": [
        {
          "internalType": "address",
          "name": "",
          "type": "address"
        }
      ],
      "stateMutability": "view",
      "type": "function"
    },
    {
      "inputs": [],
      "name": "productsCount",
      "outputs": [
        {
          "internalType": "uint256",
          "name": "",
          "type": "uint256"
        }
      ],
      "stateMutability": "view",
      "type": "function"
    },
    {
      "inputs": [
        {
          "internalType": "uint256",
          "name": "tokenId",
          "type": "uint256"
        }
      ],
      "name": "purchaseProduct",
      "outputs": [],
      "stateMutability": "payable",
      "type": "function"
    },
    {
      "inputs": [
        {
          "internalType": "address",
          "name": "from",
          "type": "address"
        },
        {
          "internalType": "address",
          "name": "to",
          "type": "address"
        },
        {
          "internalType": "uint256",
          "name": "tokenId",
          "type": "uint256"
        }
      ],
      "name": "safeTransferFrom",
      "outputs": [],
      "stateMutability": "nonpayable",
      "type": "function"
    },
    {
      "inputs": [
        {
          "internalType": "address",
          "name": "from",
          "type": "address"
        },
        {
          "internalType": "address",
          "name": "to",
          "type": "address"
        },
        {
          "internalType": "uint256",
          "name": "tokenId",
          "type": "uint256"
        },
        {
          "internalType": "bytes",
          "name": "data",
          "type": "bytes"
        }
      ],
      "name": "safeTransferFrom",
      "outputs": [],
      "stateMutability": "nonpayable",
      "type": "function"
    },
    {
      "inputs": [
        {
          "internalType": "address",
          "name": "operator",
          "type": "address"
        },
        {
          "internalType": "bool",
          "name": "approved",
          "type": "bool"
        }
      ],
      "name": "setApprovalForAll",
      "outputs": [],
      "stateMutability": "nonpayable",
      "type": "function"
    },
    {
      "inputs": [
        {
          "internalType": "bytes4",
          "name": "interfaceId",
          "type": "bytes4"
        }
      ],
      "name": "supportsInterface",
      "outputs": [
        {
          "internalType": "bool",
          "name": "",
          "type": "bool"
        }
      ],
      "stateMutability": "view",
      "type": "function"
    },
    {
      "inputs": [],
      "name": "symbol",
      "outputs": [
        {
          "internalType": "string",
          "name": "",
          "type": "string"
        }
      ],
      "stateMutability": "view",
      "type": "function"
    },
    {
      "inputs": [
        {
          "internalType": "uint256",
          "name": "tokenId",
          "type": "uint256"
        },
        {
          "internalType": "bool",
          "name": "active",
          "type": "bool"
        }
      ],
      "name": "toggleProduct",
      "outputs": [],
      "stateMutability": "nonpayable",
      "type": "function"
    },
    {
      "inputs": [
        {
          "internalType": "uint256",
          "name": "tokenId",
          "type": "uint256"
        }
      ],
      "name": "tokenURI",
      "outputs": [
        {
          "internalType": "string",
          "name": "",
          "type": "string"
        }
      ],
      "stateMutability": "view",
      "type": "function"
    },
    {
      "inputs": [
        {
          "internalType": "address",
          "name": "from",
          "type": "address"
        },
        {
          "internalType": "address",
          "name": "to",
          "type": "address"
        },
        {
          "internalType": "uint256",
          "name": "tokenId",
          "type": "uint256"
        }
      ],
      "name": "transferFrom",
      "outputs": [],
      "stateMutability": "nonpayable",
      "type": "function"
    }
  ],
  "bytecode": "0x60806040523480156200001157600080fd5b506040518060400160405280601581526020017f43656c6f4d696e694d61726b657450726f6475637400000000000000000000008152506040518060400160405280600481526020017f434d4d500000000000000000000000000000000000000000000000000000000081525081600090816200008f919062000324565b508060019081620000a1919062000324565b5050506200040b565b600081519050919050565b7f4e487b7100000000000000000000000000000000000000000000000000000000600052604160045260246000fd5b7f4e487b7100000000000000000000000000000000000000000000000000000000600052602260045260246000fd5b600060028204905060018216806200012c57607f821691505b602082108103620001425762000141620000e4565b5b50919050565b60008190508160005260206000209050919050565b60006020601f8301049050919050565b600082821b905092915050565b600060088302620001ac7fffffffffffffffffffffffffffffffffffffffffffffffffffffffffffffffff826200016d565b620001b886836200016d565b95508019841693508086168417925050509392505050565b6000819050919050565b6000819050919050565b600062000205620001ff620001f984620001d0565b620001da565b620001d0565b9050919050565b6000819050919050565b6200022183620001e4565b6200023962000230826200020c565b8484546200017a565b825550505050565b600090565b6200025062000241565b6200025d81848462000216565b505050565b5b8181101562000285576200027960008262000246565b60018101905062000263565b5050565b601f821115620002d4576200029e8162000148565b620002a9846200015d565b81016020851015620002b9578190505b620002d1620002c8856200015d565b83018262000262565b50505b505050565b600082821c905092915050565b6000620002f960001984600802620002d9565b1980831691505092915050565b6000620003148383620002e6565b9150826002028217905092915050565b6200032f82620000aa565b67ffffffffffffffff8111156200034b576200034a620000b5565b5b62000357825462000113565b6200036482828562000289565b600060209050601f8311600181146200039c576000841562000387578287015190505b62000393858262000306565b86555062000403565b601f198416620003ac8662000148565b60005b82811015620003d657848901518255600182019150602085019450602081019050620003af565b86831015620003f65784890151620003f2601f891682620002e6565b8355505b6001600288020188555050505b505050505050565b6146b6806200041b6000396000f3fe60806040526004361061011f5760003560e01c806395d89b41116100a0578063c87b56dd11610064578063c87b56dd146103ed578063ca0f46c01461042a578063d732ce3214610455578063e0df7bb614610492578063e985e9c5146104bd5761011f565b806395d89b4114610303578063a22cb4651461032e578063aef2bf3d14610357578063b88d4fde14610380578063b9db15b4146103a95761011f565b806338e76a03116100e757806338e76a031461021b57806342842e0e1461023757806342966c68146102605780636352211e1461028957806370a08231146102c65761011f565b806301ffc9a71461012457806306fdde0314610161578063081812fc1461018c578063095ea7b3146101c957806323b872dd146101f2575b600080fd5b34801561013057600080fd5b5061014b60048036038101906101469190612f4a565b6104fa565b6040516101589190612f92565b60405180910390f35b34801561016d57600080fd5b5061017661050c565b604051610183919061303d565b60405180910390f35b34801561019857600080fd5b506101b360048036038101906101ae9190613095565b61059e565b6040516101c09190613103565b60405180910390f35b3480156101d557600080fd5b506101f060048036038101906101eb919061314a565b6105ba565b005b3480156101fe57600080fd5b506102196004803603810190610214919061318a565b6105d0565b005b61023560048036038101906102309190613095565b6106d2565b005b34801561024357600080fd5b5061025e6004803603810190610259919061318a565b610afd565b005b34801561026c57600080fd5b5061028760048036038101906102829190613095565b610b1d565b005b34801561029557600080fd5b506102b060048036038101906102ab9190613095565b610b34565b6040516102bd9190613103565b60405180910390f35b3480156102d257600080fd5b506102ed60048036038101906102e891906131dd565b610b46565b6040516102fa9190613219565b60405180910390f35b34801561030f57600080fd5b50610318610c00565b604051610325919061303d565b60405180910390f35b34801561033a57600080fd5b5061035560048036038101906103509190613260565b610c92565b005b34801561036357600080fd5b5061037e600480360381019061037991906132a0565b610ca8565b005b34801561038c57600080fd5b506103a760048036038101906103a29190613415565b610e1a565b005b3480156103b557600080fd5b506103d060048036038101906103cb9190613095565b610e3f565b6040516103e4989796959493929190613498565b60405180910390f35b3480156103f957600080fd5b50610414600480360381019061040f9190613095565b6111ae565b604051610421919061303d565b60405180910390f35b34801561043657600080fd5b5061043f6111c0565b60405161044c9190613722565b60405180910390f35b34801561046157600080fd5b5061047c600480360381019061047791906137a4565b611618565b6040516104899190613219565b60405180910390f35b34801561049e57600080fd5b506104a7611a98565b6040516104b49190613219565b60405180910390f35b3480156104c957600080fd5b506104e460048036038101906104df919061386d565b611aa5565b6040516104f19190612f92565b60405180910390f35b600061050582611b39565b9050919050565b60606000805461051b906138dc565b80601f0160208091040260200160405190810160405280929190818152602001828054610547906138dc565b80156105945780601f1061056957610100808354040283529160200191610594565b820191906000526020600020905b81548152906001019060200180831161057757829003601f168201915b5050505050905090565b60006105a982611b9a565b506105b382611c22565b9050919050565b6105cc82826105c7611c5f565b611c67565b5050565b600073ffffffffffffffffffffffffffffffffffffffff168273ffffffffffffffffffffffffffffffffffffffff16036106425760006040517f64a0ae920000000000000000000000000000000000000000000000000000000081526004016106399190613103565b60405180910390fd5b60006106568383610651611c5f565b611c79565b90508373ffffffffffffffffffffffffffffffffffffffff168173ffffffffffffffffffffffffffffffffffffffff16146106cc578382826040517f64283d7b0000000000000000000000000000000000000000000000000000000081526004016106c39392919061390d565b60405180910390fd5b50505050565b600073ffffffffffffffffffffffffffffffffffffffff166008600083815260200190815260200160002060010160009054906101000a900473ffffffffffffffffffffffffffffffffffffffff1673ffffffffffffffffffffffffffffffffffffffff1603610777576040517f08c379a000000000000000000000000000000000000000000000000000000000815260040161076e90613990565b60405180910390fd5b6008600082815260200190815260200160002060060160009054906101000a900460ff166107da576040517f08c379a00000000000000000000000000000000000000000000000000000000081526004016107d1906139fc565b60405180910390fd5b6008600082815260200190815260200160002060060160019054906101000a900460ff161561083e576040517f08c379a000000000000000000000000000000000000000000000000000000000815260040161083590613a68565b60405180910390fd5b6008600082815260200190815260200160002060030154341015610897576040517f08c379a000000000000000000000000000000000000000000000000000000000815260040161088e90613ad4565b60405180910390fd5b600060086000838152602001908152602001600020905060008160010160009054906101000a900473ffffffffffffffffffffffffffffffffffffffff16905060008260030154905060018360060160016101000a81548160ff02191690831515021790555060008360060160006101000a81548160ff02191690831515021790555060008273ffffffffffffffffffffffffffffffffffffffff168260405161094090613b25565b60006040518083038185875af1925050503d806000811461097d576040519150601f19603f3d011682016040523d82523d6000602084013e610982565b606091505b50509050806109c6576040517f08c379a00000000000000000000000000000000000000000000000000000000081526004016109bd90613b86565b60405180910390fd5b81341115610a875760003373ffffffffffffffffffffffffffffffffffffffff1683346109f39190613bd5565b6040516109ff90613b25565b60006040518083038185875af1925050503d8060008114610a3c576040519150601f19603f3d011682016040523d82523d6000602084013e610a41565b606091505b5050905080610a85576040517f08c379a0000000000000000000000000000000000000000000000000000000008152600401610a7c90613c55565b60405180910390fd5b505b610a9085611e93565b8273ffffffffffffffffffffffffffffffffffffffff163373ffffffffffffffffffffffffffffffffffffffff16867f89a8790373694cb8e6f5112d59a2e66f88c2be837274055780f8910dab3e695c85604051610aee9190613219565b60405180910390a45050505050565b610b1883838360405180602001604052806000815250610e1a565b505050565b610b30600082610b2b611c5f565b611c79565b5050565b6000610b3f82611b9a565b9050919050565b60008073ffffffffffffffffffffffffffffffffffffffff168273ffffffffffffffffffffffffffffffffffffffff1603610bb95760006040517f89c62b64000000000000000000000000000000000000000000000000000000008152600401610bb09190613103565b60405180910390fd5b600360008373ffffffffffffffffffffffffffffffffffffffff1673ffffffffffffffffffffffffffffffffffffffff168152602001908152602001600020549050919050565b606060018054610c0f906138dc565b80601f0160208091040260200160405190810160405280929190818152602001828054610c3b906138dc565b8015610c885780601f10610c5d57610100808354040283529160200191610c88565b820191906000526020600020905b815481529060010190602001808311610c6b57829003601f168201915b5050505050905090565b610ca4610c9d611c5f565b8383611f19565b5050565b3373ffffffffffffffffffffffffffffffffffffffff166008600084815260200190815260200160002060010160009054906101000a900473ffffffffffffffffffffffffffffffffffffffff1673ffffffffffffffffffffffffffffffffffffffff1614610d4c576040517f08c379a0000000000000000000000000000000000000000000000000000000008152600401610d4390613cc1565b60405180910390fd5b6008600083815260200190815260200160002060060160019054906101000a900460ff1615610db0576040517f08c379a0000000000000000000000000000000000000000000000000000000008152600401610da790613a68565b60405180910390fd5b806008600084815260200190815260200160002060060160006101000a81548160ff021916908315150217905550817f3073384d07d81581ba56de82cf13823a01c94c64e4fb49f91a1dbc47d0fc1ac382604051610e0e9190612f92565b60405180910390a25050565b610e258484846105d0565b610e39610e30611c5f565b85858585612088565b50505050565b60008060606000606080600080600073ffffffffffffffffffffffffffffffffffffffff16600860008b815260200190815260200160002060010160009054906101000a900473ffffffffffffffffffffffffffffffffffffffff1673ffffffffffffffffffffffffffffffffffffffff1603610ef1576040517f08c379a0000000000000000000000000000000000000000000000000000000008152600401610ee890613990565b60405180910390fd5b6000600860008b815260200190815260200160002060405180610100016040529081600082015481526020016001820160009054906101000a900473ffffffffffffffffffffffffffffffffffffffff1673ffffffffffffffffffffffffffffffffffffffff1673ffffffffffffffffffffffffffffffffffffffff168152602001600282018054610f82906138dc565b80601f0160208091040260200160405190810160405280929190818152602001828054610fae906138dc565b8015610ffb5780601f10610fd057610100808354040283529160200191610ffb565b820191906000526020600020905b815481529060010190602001808311610fde57829003601f168201915b505050505081526020016003820154815260200160048201805461101e906138dc565b80601f016020809104026020016040519081016040528092919081815260200182805461104a906138dc565b80156110975780601f1061106c57610100808354040283529160200191611097565b820191906000526020600020905b81548152906001019060200180831161107a57829003601f168201915b505050505081526020016005820180546110b0906138dc565b80601f01602080910402602001604051908101604052809291908181526020018280546110dc906138dc565b80156111295780601f106110fe57610100808354040283529160200191611129565b820191906000526020600020905b81548152906001019060200180831161110c57829003601f168201915b505050505081526020016006820160009054906101000a900460ff161515151581526020016006820160019054906101000a900460ff1615151515815250509050806000015181602001518260400151836060015184608001518560a001518660c001518760e001519850985098509850985098509850985050919395975091939597565b60606111b982612239565b9050919050565b6060600080600090505b600980549050811015611273576000600982815481106111ed576111ec613ce1565b5b906000526020600020015490506008600082815260200190815260200160002060060160009054906101000a900460ff16801561124b57506008600082815260200190815260200160002060060160019054906101000a900460ff16155b1561125f57828061125b90613d10565b9350505b50808061126b90613d10565b9150506111ca565b5060008167ffffffffffffffff8111156112905761128f6132ea565b5b6040519080825280602002602001820160405280156112c957816020015b6112b6612e7f565b8152602001906001900390816112ae5790505b509050600080600090505b60098054905081101561160e576000600982815481106112f7576112f6613ce1565b5b906000526020600020015490506008600082815260200190815260200160002060060160009054906101000a900460ff16801561135557506008600082815260200190815260200160002060060160019054906101000a900460ff16155b156115fa576008600082815260200190815260200160002060405180610100016040529081600082015481526020016001820160009054906101000a900473ffffffffffffffffffffffffffffffffffffffff1673ffffffffffffffffffffffffffffffffffffffff1673ffffffffffffffffffffffffffffffffffffffff1681526020016002820180546113e9906138dc565b80601f0160208091040260200160405190810160405280929190818152602001828054611415906138dc565b80156114625780601f1061143757610100808354040283529160200191611462565b820191906000526020600020905b81548152906001019060200180831161144557829003601f168201915b5050505050815260200160038201548152602001600482018054611485906138dc565b80601f01602080910402602001604051908101604052809291908181526020018280546114b1906138dc565b80156114fe5780601f106114d3576101008083540402835291602001916114fe565b820191906000526020600020905b8154815290600101906020018083116114e157829003601f168201915b50505050508152602001600582018054611517906138dc565b80601f0160208091040260200160405190810160405280929190818152602001828054611543906138dc565b80156115905780601f1061156557610100808354040283529160200191611590565b820191906000526020600020905b81548152906001019060200180831161157357829003601f168201915b505050505081526020016006820160009054906101000a900460ff161515151581526020016006820160019054906101000a900460ff1615151515815250508484806115db90613d10565b9550815181106115ee576115ed613ce1565b5b60200260200101819052505b50808061160690613d10565b9150506112d4565b5081935050505090565b600080888890501161165f576040517f08c379a000000000000000000000000000000000000000000000000000000000815260040161165690613da4565b60405180910390fd5b600086116116a2576040517f08c379a000000000000000000000000000000000000000000000000000000000815260040161169990613e10565b60405180910390fd5b600083839050116116e8576040517f08c379a00000000000000000000000000000000000000000000000000000000081526004016116df90613e7c565b60405180910390fd5b600060075490506007600081548092919061170290613d10565b9190505550611711338261234c565b60006117eb828b8b8080601f016020809104026020016040519081016040528093929190818152602001838380828437600081840152601f19601f8201169050808301925050505050505089898080601f016020809104026020016040519081016040528093929190818152602001838380828437600081840152601f19601f8201169050808301925050505050505088888080601f016020809104026020016040519081016040528093929190818152602001838380828437600081840152601f19601f8201169050808301925050505050505061236a565b90506117f782826123d1565b6040518061010001604052808381526020013373ffffffffffffffffffffffffffffffffffffffff1681526020018b8b8080601f016020809104026020016040519081016040528093929190818152602001838380828437600081840152601f19601f82011690508083019250505050505050815260200189815260200188888080601f016020809104026020016040519081016040528093929190818152602001838380828437600081840152601f19601f82011690508083019250505050505050815260200186868080601f016020809104026020016040519081016040528093929190818152602001838380828437600081840152601f19601f82011690508083019250505050505050815260200160011515815260200160001515815250600860008481526020019081526020016000206000820151816000015560208201518160010160006101000a81548173ffffffffffffffffffffffffffffffffffffffff021916908373ffffffffffffffffffffffffffffffffffffffff16021790555060408201518160020190816119929190614048565b506060820151816003015560808201518160040190816119b29190614048565b5060a08201518160050190816119c89190614048565b5060c08201518160060160006101000a81548160ff02191690831515021790555060e08201518160060160016101000a81548160ff02191690831515021790555090505060098290806001815401808255809150506001900390600052602060002001600090919091909150553373ffffffffffffffffffffffffffffffffffffffff16827fef311eec1d40202fee1909ab585df5e024df1930dc6bba97722d1e60e91c01f78c8c8c604051611a8093929190614147565b60405180910390a38192505050979650505050505050565b6000600980549050905090565b6000600560008473ffffffffffffffffffffffffffffffffffffffff1673ffffffffffffffffffffffffffffffffffffffff16815260200190815260200160002060008373ffffffffffffffffffffffffffffffffffffffff1673ffffffffffffffffffffffffffffffffffffffff16815260200190815260200160002060009054906101000a900460ff16905092915050565b6000634906490660e01b7bffffffffffffffffffffffffffffffffffffffffffffffffffffffff1916827bffffffffffffffffffffffffffffffffffffffffffffffffffffffff19161480611b935750611b928261242d565b5b9050919050565b600080611ba68361250f565b9050600073ffffffffffffffffffffffffffffffffffffffff168173ffffffffffffffffffffffffffffffffffffffff1603611c1957826040517f7e273289000000000000000000000000000000000000000000000000000000008152600401611c109190613219565b60405180910390fd5b80915050919050565b60006004600083815260200190815260200160002060009054906101000a900473ffffffffffffffffffffffffffffffffffffffff169050919050565b600033905090565b611c74838383600161254c565b505050565b600080611c858461250f565b9050600073ffffffffffffffffffffffffffffffffffffffff168373ffffffffffffffffffffffffffffffffffffffff1614611cc757611cc6818486612711565b5b600073ffffffffffffffffffffffffffffffffffffffff168173ffffffffffffffffffffffffffffffffffffffff1614611d5857611d0960008560008061254c565b6001600360008373ffffffffffffffffffffffffffffffffffffffff1673ffffffffffffffffffffffffffffffffffffffff168152602001908152602001600020600082825403925050819055505b600073ffffffffffffffffffffffffffffffffffffffff168573ffffffffffffffffffffffffffffffffffffffff1614611ddb576001600360008773ffffffffffffffffffffffffffffffffffffffff1673ffffffffffffffffffffffffffffffffffffffff168152602001908152602001600020600082825401925050819055505b846002600086815260200190815260200160002060006101000a81548173ffffffffffffffffffffffffffffffffffffffff021916908373ffffffffffffffffffffffffffffffffffffffff160217905550838573ffffffffffffffffffffffffffffffffffffffff168273ffffffffffffffffffffffffffffffffffffffff167fddf252ad1be2c89b69c2b068fc378daa952ba7f163c4a11628f55a4df523b3ef60405160405180910390a4809150509392505050565b6000611ea26000836000611c79565b9050600073ffffffffffffffffffffffffffffffffffffffff168173ffffffffffffffffffffffffffffffffffffffff1603611f1557816040517f7e273289000000000000000000000000000000000000000000000000000000008152600401611f0c9190613219565b60405180910390fd5b5050565b600073ffffffffffffffffffffffffffffffffffffffff168273ffffffffffffffffffffffffffffffffffffffff1603611f8a57816040517f5b08ba18000000000000000000000000000000000000000000000000000000008152600401611f819190613103565b60405180910390fd5b80600560008573ffffffffffffffffffffffffffffffffffffffff1673ffffffffffffffffffffffffffffffffffffffff16815260200190815260200160002060008473ffffffffffffffffffffffffffffffffffffffff1673ffffffffffffffffffffffffffffffffffffffff16815260200190815260200160002060006101000a81548160ff0219169083151502179055508173ffffffffffffffffffffffffffffffffffffffff168373ffffffffffffffffffffffffffffffffffffffff167f17307eab39ab6107e8899845ad3d59bd9653f200f220920489ca2b5937696c318360405161207b9190612f92565b60405180910390a3505050565b60008373ffffffffffffffffffffffffffffffffffffffff163b1115612232578273ffffffffffffffffffffffffffffffffffffffff1663150b7a02868685856040518563ffffffff1660e01b81526004016120e794939291906141ce565b6020604051808303816000875af192505050801561212357506040513d601f19601f82011682018060405250810190612120919061422f565b60015b6121a7573d8060008114612153576040519150601f19603f3d011682016040523d82523d6000602084013e612158565b606091505b50600081510361219f57836040517f64a0ae920000000000000000000000000000000000000000000000000000000081526004016121969190613103565b60405180910390fd5b805160208201fd5b63150b7a0260e01b7bffffffffffffffffffffffffffffffffffffffffffffffffffffffff1916817bffffffffffffffffffffffffffffffffffffffffffffffffffffffff19161461223057836040517f64a0ae920000000000000000000000000000000000000000000000000000000081526004016122279190613103565b60405180910390fd5b505b5050505050565b606061224482611b9a565b506000600660008481526020019081526020016000208054612265906138dc565b80601f0160208091040260200160405190810160405280929190818152602001828054612291906138dc565b80156122de5780601f106122b3576101008083540402835291602001916122de565b820191906000526020600020905b8154815290600101906020018083116122c157829003601f168201915b5050505050905060006122ef6127d5565b90506000815103612304578192505050612347565b600082511115612339578082604051602001612321929190614298565b60405160208183030381529060405292505050612347565b612342846127ec565b925050505b919050565b612366828260405180602001604052806000815250612855565b5050565b6060600084848461237a89612879565b60405160200161238d949392919061445e565b60405160208183030381529060405290506123a781612947565b6040516020016123b7919061451f565b604051602081830303815290604052915050949350505050565b806006600084815260200190815260200160002090816123f19190614048565b507ff8e1a15aba9398e019f0b49df1a4fde98ee17ae345cb5f6b5e2c27f5033e8ce7826040516124219190613219565b60405180910390a15050565b60007f80ac58cd000000000000000000000000000000000000000000000000000000007bffffffffffffffffffffffffffffffffffffffffffffffffffffffff1916827bffffffffffffffffffffffffffffffffffffffffffffffffffffffff191614806124f857507f5b5e139f000000000000000000000000000000000000000000000000000000007bffffffffffffffffffffffffffffffffffffffffffffffffffffffff1916827bffffffffffffffffffffffffffffffffffffffffffffffffffffffff1916145b80612508575061250782612974565b5b9050919050565b60006002600083815260200190815260200160002060009054906101000a900473ffffffffffffffffffffffffffffffffffffffff169050919050565b80806125855750600073ffffffffffffffffffffffffffffffffffffffff168273ffffffffffffffffffffffffffffffffffffffff1614155b156126b957600061259584611b9a565b9050600073ffffffffffffffffffffffffffffffffffffffff168373ffffffffffffffffffffffffffffffffffffffff161415801561260057508273ffffffffffffffffffffffffffffffffffffffff168173ffffffffffffffffffffffffffffffffffffffff1614155b801561261357506126118184611aa5565b155b1561265557826040517fa9fbf51f00000000000000000000000000000000000000000000000000000000815260040161264c9190613103565b60405180910390fd5b81156126b757838573ffffffffffffffffffffffffffffffffffffffff168273ffffffffffffffffffffffffffffffffffffffff167f8c5be1e5ebec7d5bd14f71427d1e84f3dd0314c0f7b2291e5b200ac8c7c3b92560405160405180910390a45b505b836004600085815260200190815260200160002060006101000a81548173ffffffffffffffffffffffffffffffffffffffff021916908373ffffffffffffffffffffffffffffffffffffffff16021790555050505050565b61271c8383836129de565b6127d057600073ffffffffffffffffffffffffffffffffffffffff168373ffffffffffffffffffffffffffffffffffffffff160361279157806040517f7e2732890000000000000000000000000000000000000000000000000000000081526004016127889190613219565b60405180910390fd5b81816040517f177e802f0000000000000000000000000000000000000000000000000000000081526004016127c7929190614541565b60405180910390fd5b505050565b606060405180602001604052806000815250905090565b60606127f782611b9a565b5060006128026127d5565b90506000815111612822576040518060200160405280600081525061284d565b8061282c84612879565b60405160200161283d929190614298565b6040516020818303038152906040525b915050919050565b61285f8383612a9f565b61287461286a611c5f565b6000858585612088565b505050565b60606000600161288884612b98565b01905060008167ffffffffffffffff8111156128a7576128a66132ea565b5b6040519080825280601f01601f1916602001820160405280156128d95781602001600182028036833780820191505090505b509050600082602083010190505b60011561293c578080600190039150507f3031323334353637383961626364656600000000000000000000000000000000600a86061a8153600a85816129305761292f61456a565b5b049450600085036128e7575b819350505050919050565b606061296d82604051806060016040528060408152602001614641604091396001612ceb565b9050919050565b60007f01ffc9a7000000000000000000000000000000000000000000000000000000007bffffffffffffffffffffffffffffffffffffffffffffffffffffffff1916827bffffffffffffffffffffffffffffffffffffffffffffffffffffffff1916149050919050565b60008073ffffffffffffffffffffffffffffffffffffffff168373ffffffffffffffffffffffffffffffffffffffff1614158015612a9657508273ffffffffffffffffffffffffffffffffffffffff168473ffffffffffffffffffffffffffffffffffffffff161480612a575750612a568484611aa5565b5b80612a9557508273ffffffffffffffffffffffffffffffffffffffff16612a7d83611c22565b73ffffffffffffffffffffffffffffffffffffffff16145b5b90509392505050565b600073ffffffffffffffffffffffffffffffffffffffff168273ffffffffffffffffffffffffffffffffffffffff1603612b115760006040517f64a0ae92000000000000000000000000000000000000000000000000000000008152600401612b089190613103565b60405180910390fd5b6000612b1f83836000611c79565b9050600073ffffffffffffffffffffffffffffffffffffffff168173ffffffffffffffffffffffffffffffffffffffff1614612b935760006040517f73c6ac6e000000000000000000000000000000000000000000000000000000008152600401612b8a9190613103565b60405180910390fd5b505050565b600080600090507a184f03e93ff9f4daa797ed6e38ed64bf6a1f0100000000000000008310612bf6577a184f03e93ff9f4daa797ed6e38ed64bf6a1f0100000000000000008381612bec57612beb61456a565b5b0492506040810190505b6d04ee2d6d415b85acef81000000008310612c33576d04ee2d6d415b85acef81000000008381612c2957612c2861456a565b5b0492506020810190505b662386f26fc100008310612c6257662386f26fc100008381612c5857612c5761456a565b5b0492506010810190505b6305f5e1008310612c8b576305f5e1008381612c8157612c8061456a565b5b0492506008810190505b6127108310612cb0576127108381612ca657612ca561456a565b5b0492506004810190505b60648310612cd35760648381612cc957612cc861456a565b5b0492506002810190505b600a8310612ce2576001810190505b80915050919050565b60606000845103612d0d57604051806020016040528060008152509050612e78565b600082612d3f576003600286516004612d269190614599565b612d3091906145db565b612d3a919061460f565b612d66565b600360028651612d4f91906145db565b612d59919061460f565b6004612d659190614599565b5b905060008167ffffffffffffffff811115612d8457612d836132ea565b5b6040519080825280601f01601f191660200182016040528015612db65781602001600182028036833780820191505090505b50905060018501602082018788518901602081018051600082525b82841015612e2c576003840193508351603f8160121c168701518653600186019550603f81600c1c168701518653600186019550603f8160061c168701518653600186019550603f8116870151865360018601955050612dd1565b8082528915612e6c5760038c510660018114612e4f5760028114612e6257612e6a565b603d6001870353603d6002870353612e6a565b603d60018703535b505b50505050505080925050505b9392505050565b60405180610100016040528060008152602001600073ffffffffffffffffffffffffffffffffffffffff168152602001606081526020016000815260200160608152602001606081526020016000151581526020016000151581525090565b6000604051905090565b600080fd5b600080fd5b60007fffffffff0000000000000000000000000000000000000000000000000000000082169050919050565b612f2781612ef2565b8114612f3257600080fd5b50565b600081359050612f4481612f1e565b92915050565b600060208284031215612f6057612f5f612ee8565b5b6000612f6e84828501612f35565b91505092915050565b60008115159050919050565b612f8c81612f77565b82525050565b6000602082019050612fa76000830184612f83565b92915050565b600081519050919050565b600082825260208201905092915050565b60005b83811015612fe7578082015181840152602081019050612fcc565b60008484015250505050565b6000601f19601f8301169050919050565b600061300f82612fad565b6130198185612fb8565b9350613029818560208601612fc9565b61303281612ff3565b840191505092915050565b600060208201905081810360008301526130578184613004565b905092915050565b6000819050919050565b6130728161305f565b811461307d57600080fd5b50565b60008135905061308f81613069565b92915050565b6000602082840312156130ab576130aa612ee8565b5b60006130b984828501613080565b91505092915050565b600073ffffffffffffffffffffffffffffffffffffffff82169050919050565b60006130ed826130c2565b9050919050565b6130fd816130e2565b82525050565b600060208201905061311860008301846130f4565b92915050565b613127816130e2565b811461313257600080fd5b50565b6000813590506131448161311e565b92915050565b6000806040838503121561316157613160612ee8565b5b600061316f85828601613135565b925050602061318085828601613080565b9150509250929050565b6000806000606084860312156131a3576131a2612ee8565b5b60006131b186828701613135565b93505060206131c286828701613135565b92505060406131d386828701613080565b9150509250925092565b6000602082840312156131f3576131f2612ee8565b5b600061320184828501613135565b91505092915050565b6132138161305f565b82525050565b600060208201905061322e600083018461320a565b92915050565b61323d81612f77565b811461324857600080fd5b50565b60008135905061325a81613234565b92915050565b6000806040838503121561327757613276612ee8565b5b600061328585828601613135565b92505060206132968582860161324b565b9150509250929050565b600080604083850312156132b7576132b6612ee8565b5b60006132c585828601613080565b92505060206132d68582860161324b565b9150509250929050565b600080fd5b600080fd5b7f4e487b7100000000000000000000000000000000000000000000000000000000600052604160045260246000fd5b61332282612ff3565b810181811067ffffffffffffffff82111715613341576133406132ea565b5b80604052505050565b6000613354612ede565b90506133608282613319565b919050565b600067ffffffffffffffff8211156133805761337f6132ea565b5b61338982612ff3565b9050602081019050919050565b82818337600083830152505050565b60006133b86133b384613365565b61334a565b9050828152602081018484840111156133d4576133d36132e5565b5b6133df848285613396565b509392505050565b600082601f8301126133fc576133fb6132e0565b5b813561340c8482602086016133a5565b91505092915050565b6000806000806080858703121561342f5761342e612ee8565b5b600061343d87828801613135565b945050602061344e87828801613135565b935050604061345f87828801613080565b925050606085013567ffffffffffffffff8111156134805761347f612eed565b5b61348c878288016133e7565b91505092959194509250565b6000610100820190506134ae600083018b61320a565b6134bb602083018a6130f4565b81810360408301526134cd8189613004565b90506134dc606083018861320a565b81810360808301526134ee8187613004565b905081810360a08301526135028186613004565b905061351160c0830185612f83565b61351e60e0830184612f83565b9998505050505050505050565b600081519050919050565b600082825260208201905092915050565b6000819050602082019050919050565b6135608161305f565b82525050565b61356f816130e2565b82525050565b600082825260208201905092915050565b600061359182612fad565b61359b8185613575565b93506135ab818560208601612fc9565b6135b481612ff3565b840191505092915050565b6135c881612f77565b82525050565b6000610100830160008301516135e76000860182613557565b5060208301516135fa6020860182613566565b50604083015184820360408601526136128282613586565b91505060608301516136276060860182613557565b506080830151848203608086015261363f8282613586565b91505060a083015184820360a08601526136598282613586565b91505060c083015161366e60c08601826135bf565b5060e083015161368160e08601826135bf565b508091505092915050565b600061369883836135ce565b905092915050565b6000602082019050919050565b60006136b88261352b565b6136c28185613536565b9350836020820285016136d485613547565b8060005b8581101561371057848403895281516136f1858261368c565b94506136fc836136a0565b925060208a019950506001810190506136d8565b50829750879550505050505092915050565b6000602082019050818103600083015261373c81846136ad565b905092915050565b600080fd5b600080fd5b60008083601f840112613764576137636132e0565b5b8235905067ffffffffffffffff81111561378157613780613744565b5b60208301915083600182028301111561379d5761379c613749565b5b9250929050565b60008060008060008060006080888a0312156137c3576137c2612ee8565b5b600088013567ffffffffffffffff8111156137e1576137e0612eed565b5b6137ed8a828b0161374e565b975097505060206138008a828b01613080565b955050604088013567ffffffffffffffff81111561382157613820612eed565b5b61382d8a828b0161374e565b9450945050606088013567ffffffffffffffff8111156138505761384f612eed565b5b61385c8a828b0161374e565b925092505092959891949750929550565b6000806040838503121561388457613883612ee8565b5b600061389285828601613135565b92505060206138a385828601613135565b9150509250929050565b7f4e487b7100000000000000000000000000000000000000000000000000000000600052602260045260246000fd5b600060028204905060018216806138f457607f821691505b602082108103613907576139066138ad565b5b50919050565b600060608201905061392260008301866130f4565b61392f602083018561320a565b61393c60408301846130f4565b949350505050565b7f50726f64756374206e6f7420666f756e64000000000000000000000000000000600082015250565b600061397a601183612fb8565b915061398582613944565b602082019050919050565b600060208201905081810360008301526139a98161396d565b9050919050565b7f50726f64756374206e6f74206163746976650000000000000000000000000000600082015250565b60006139e6601283612fb8565b91506139f1826139b0565b602082019050919050565b60006020820190508181036000830152613a15816139d9565b9050919050565b7f50726f6475637420616c726561647920736f6c64000000000000000000000000600082015250565b6000613a52601483612fb8565b9150613a5d82613a1c565b602082019050919050565b60006020820190508181036000830152613a8181613a45565b9050919050565b7f496e73756666696369656e74207061796d656e74000000000000000000000000600082015250565b6000613abe601483612fb8565b9150613ac982613a88565b602082019050919050565b60006020820190508181036000830152613aed81613ab1565b9050919050565b600081905092915050565b50565b6000613b0f600083613af4565b9150613b1a82613aff565b600082019050919050565b6000613b3082613b02565b9150819050919050565b7f5061796d656e74206661696c6564000000000000000000000000000000000000600082015250565b6000613b70600e83612fb8565b9150613b7b82613b3a565b602082019050919050565b60006020820190508181036000830152613b9f81613b63565b9050919050565b7f4e487b7100000000000000000000000000000000000000000000000000000000600052601160045260246000fd5b6000613be08261305f565b9150613beb8361305f565b9250828203905081811115613c0357613c02613ba6565b5b92915050565b7f526566756e64206661696c656400000000000000000000000000000000000000600082015250565b6000613c3f600d83612fb8565b9150613c4a82613c09565b602082019050919050565b60006020820190508181036000830152613c6e81613c32565b9050919050565b7f4f6e6c792076656e646f72000000000000000000000000000000000000000000600082015250565b6000613cab600b83612fb8565b9150613cb682613c75565b602082019050919050565b60006020820190508181036000830152613cda81613c9e565b9050919050565b7f4e487b7100000000000000000000000000000000000000000000000000000000600052603260045260246000fd5b6000613d1b8261305f565b91507fffffffffffffffffffffffffffffffffffffffffffffffffffffffffffffffff8203613d4d57613d4c613ba6565b5b600182019050919050565b7f4e616d6520726571756972656400000000000000000000000000000000000000600082015250565b6000613d8e600d83612fb8565b9150613d9982613d58565b602082019050919050565b60006020820190508181036000830152613dbd81613d81565b9050919050565b7f5072696365206d757374206265203e2030000000000000000000000000000000600082015250565b6000613dfa601183612fb8565b9150613e0582613dc4565b602082019050919050565b60006020820190508181036000830152613e2981613ded565b9050919050565b7f496d616765207265717569726564000000000000000000000000000000000000600082015250565b6000613e66600e83612fb8565b9150613e7182613e30565b602082019050919050565b60006020820190508181036000830152613e9581613e59565b9050919050565b60008190508160005260206000209050919050565b60006020601f8301049050919050565b600082821b905092915050565b600060088302613efe7fffffffffffffffffffffffffffffffffffffffffffffffffffffffffffffffff82613ec1565b613f088683613ec1565b95508019841693508086168417925050509392505050565b6000819050919050565b6000613f45613f40613f3b8461305f565b613f20565b61305f565b9050919050565b6000819050919050565b613f5f83613f2a565b613f73613f6b82613f4c565b848454613ece565b825550505050565b600090565b613f88613f7b565b613f93818484613f56565b505050565b5b81811015613fb757613fac600082613f80565b600181019050613f99565b5050565b601f821115613ffc57613fcd81613e9c565b613fd684613eb1565b81016020851015613fe5578190505b613ff9613ff185613eb1565b830182613f98565b50505b505050565b600082821c905092915050565b600061401f60001984600802614001565b1980831691505092915050565b6000614038838361400e565b9150826002028217905092915050565b61405182612fad565b67ffffffffffffffff81111561406a576140696132ea565b5b61407482546138dc565b61407f828285613fbb565b600060209050601f8311600181146140b257600084156140a0578287015190505b6140aa858261402c565b865550614112565b601f1984166140c086613e9c565b60005b828110156140e8578489015182556001820191506020850194506020810190506140c3565b868310156141055784890151614101601f89168261400e565b8355505b6001600288020188555050505b505050505050565b60006141268385612fb8565b9350614133838584613396565b61413c83612ff3565b840190509392505050565b6000604082019050818103600083015261416281858761411a565b9050614171602083018461320a565b949350505050565b600081519050919050565b600082825260208201905092915050565b60006141a082614179565b6141aa8185614184565b93506141ba818560208601612fc9565b6141c381612ff3565b840191505092915050565b60006080820190506141e360008301876130f4565b6141f060208301866130f4565b6141fd604083018561320a565b818103606083015261420f8184614195565b905095945050505050565b60008151905061422981612f1e565b92915050565b60006020828403121561424557614244612ee8565b5b60006142538482850161421a565b91505092915050565b600081905092915050565b600061427282612fad565b61427c818561425c565b935061428c818560208601612fc9565b80840191505092915050565b60006142a48285614267565b91506142b08284614267565b91508190509392505050565b7f7b226e616d65223a220000000000000000000000000000000000000000000000600082015250565b60006142f260098361425c565b91506142fd826142bc565b600982019050919050565b7f222c226465736372697074696f6e223a22000000000000000000000000000000600082015250565b600061433e60118361425c565b915061434982614308565b601182019050919050565b7f222c22696d616765223a22000000000000000000000000000000000000000000600082015250565b600061438a600b8361425c565b915061439582614354565b600b82019050919050565b7f222c2261747472696275746573223a5b7b2274726169745f74797065223a225060008201527f726f64756374204944222c2276616c7565223a22000000000000000000000000602082015250565b60006143fc60348361425c565b9150614407826143a0565b603482019050919050565b7f227d5d7d00000000000000000000000000000000000000000000000000000000600082015250565b600061444860048361425c565b915061445382614412565b600482019050919050565b6000614469826142e5565b91506144758287614267565b915061448082614331565b915061448c8286614267565b91506144978261437d565b91506144a38285614267565b91506144ae826143ef565b91506144ba8284614267565b91506144c58261443b565b915081905095945050505050565b7f646174613a6170706c69636174696f6e2f6a736f6e3b6261736536342c000000600082015250565b6000614509601d8361425c565b9150614514826144d3565b601d82019050919050565b600061452a826144fc565b91506145368284614267565b915081905092915050565b600060408201905061455660008301856130f4565b614563602083018461320a565b9392505050565b7f4e487b7100000000000000000000000000000000000000000000000000000000600052601260045260246000fd5b60006145a48261305f565b91506145af8361305f565b92508282026145bd8161305f565b915082820484148315176145d4576145d3613ba6565b5b5092915050565b60006145e68261305f565b91506145f18361305f565b925082820190508082111561460957614608613ba6565b5b92915050565b600061461a8261305f565b91506146258361305f565b9250826146355761463461456a565b5b82820490509291505056fe4142434445464748494a4b4c4d4e4f505152535455565758595a6162636465666768696a6b6c6d6e6f707172737475767778797a303132333435363738392b2fa26469706673582212206a259076efdd2ea2aca182960d123fd581792e1e66561d3bcb098bb30cff85d864736f6c63430008140033",
  "linkReferences": {},
  "deployedLinkReferences": {}
}